{
  "contractName": "Assignment3B",
  "abi": [
    {
      "inputs": [],
      "stateMutability": "nonpayable",
      "type": "constructor"
    },
    {
      "anonymous": false,
      "inputs": [
        {
          "indexed": true,
          "internalType": "address",
          "name": "owner",
          "type": "address"
        },
        {
          "indexed": true,
          "internalType": "address",
          "name": "spender",
          "type": "address"
        },
        {
          "indexed": false,
          "internalType": "uint256",
          "name": "value",
          "type": "uint256"
        }
      ],
      "name": "Approval",
      "type": "event"
    },
    {
      "anonymous": false,
      "inputs": [
        {
          "indexed": true,
          "internalType": "address",
          "name": "from",
          "type": "address"
        },
        {
          "indexed": true,
          "internalType": "address",
          "name": "to",
          "type": "address"
        },
        {
          "indexed": false,
          "internalType": "uint256",
          "name": "value",
          "type": "uint256"
        }
      ],
      "name": "Transfer",
      "type": "event"
    },
    {
      "inputs": [
        {
          "internalType": "address",
          "name": "owner",
          "type": "address"
        },
        {
          "internalType": "address",
          "name": "spender",
          "type": "address"
        }
      ],
      "name": "allowance",
      "outputs": [
        {
          "internalType": "uint256",
          "name": "",
          "type": "uint256"
        }
      ],
      "stateMutability": "view",
      "type": "function"
    },
    {
      "inputs": [
        {
          "internalType": "address",
          "name": "spender",
          "type": "address"
        },
        {
          "internalType": "uint256",
          "name": "amount",
          "type": "uint256"
        }
      ],
      "name": "approve",
      "outputs": [
        {
          "internalType": "bool",
          "name": "",
          "type": "bool"
        }
      ],
      "stateMutability": "nonpayable",
      "type": "function"
    },
    {
      "inputs": [
        {
          "internalType": "address",
          "name": "account",
          "type": "address"
        }
      ],
      "name": "balanceOf",
      "outputs": [
        {
          "internalType": "uint256",
          "name": "",
          "type": "uint256"
        }
      ],
      "stateMutability": "view",
      "type": "function"
    },
    {
      "inputs": [],
      "name": "cap",
      "outputs": [
        {
          "internalType": "uint256",
          "name": "",
          "type": "uint256"
        }
      ],
      "stateMutability": "view",
      "type": "function"
    },
    {
      "inputs": [],
      "name": "decimals",
      "outputs": [
        {
          "internalType": "uint8",
          "name": "",
          "type": "uint8"
        }
      ],
      "stateMutability": "view",
      "type": "function"
    },
    {
      "inputs": [
        {
          "internalType": "address",
          "name": "spender",
          "type": "address"
        },
        {
          "internalType": "uint256",
          "name": "subtractedValue",
          "type": "uint256"
        }
      ],
      "name": "decreaseAllowance",
      "outputs": [
        {
          "internalType": "bool",
          "name": "",
          "type": "bool"
        }
      ],
      "stateMutability": "nonpayable",
      "type": "function"
    },
    {
      "inputs": [
        {
          "internalType": "address",
          "name": "spender",
          "type": "address"
        },
        {
          "internalType": "uint256",
          "name": "addedValue",
          "type": "uint256"
        }
      ],
      "name": "increaseAllowance",
      "outputs": [
        {
          "internalType": "bool",
          "name": "",
          "type": "bool"
        }
      ],
      "stateMutability": "nonpayable",
      "type": "function"
    },
    {
      "inputs": [],
      "name": "name",
      "outputs": [
        {
          "internalType": "string",
          "name": "",
          "type": "string"
        }
      ],
      "stateMutability": "view",
      "type": "function"
    },
    {
      "inputs": [],
      "name": "symbol",
      "outputs": [
        {
          "internalType": "string",
          "name": "",
          "type": "string"
        }
      ],
      "stateMutability": "view",
      "type": "function"
    },
    {
      "inputs": [],
      "name": "totalSupply",
      "outputs": [
        {
          "internalType": "uint256",
          "name": "",
          "type": "uint256"
        }
      ],
      "stateMutability": "view",
      "type": "function"
    },
    {
      "inputs": [
        {
          "internalType": "address",
          "name": "recipient",
          "type": "address"
        },
        {
          "internalType": "uint256",
          "name": "amount",
          "type": "uint256"
        }
      ],
      "name": "transfer",
      "outputs": [
        {
          "internalType": "bool",
          "name": "",
          "type": "bool"
        }
      ],
      "stateMutability": "nonpayable",
      "type": "function"
    },
    {
      "inputs": [
        {
          "internalType": "address",
          "name": "sender",
          "type": "address"
        },
        {
          "internalType": "address",
          "name": "recipient",
          "type": "address"
        },
        {
          "internalType": "uint256",
          "name": "amount",
          "type": "uint256"
        }
      ],
      "name": "transferFrom",
      "outputs": [
        {
          "internalType": "bool",
          "name": "",
          "type": "bool"
        }
      ],
      "stateMutability": "nonpayable",
      "type": "function"
    },
    {
      "inputs": [
        {
          "internalType": "address",
          "name": "account",
          "type": "address"
        },
        {
          "internalType": "uint256",
          "name": "amount",
          "type": "uint256"
        }
      ],
      "name": "generateToken",
      "outputs": [],
      "stateMutability": "nonpayable",
      "type": "function"
    }
  ],
  "bytecode": "0x60806040523480156200001157600080fd5b506040518060400160405280600a81526020017f5468697264546f6b656e000000000000000000000000000000000000000000008152506040518060400160405280600381526020017f4d4b4e00000000000000000000000000000000000000000000000000000000008152508160039080519060200190620000969291906200033c565b508060049080519060200190620000af9291906200033c565b50620000c06200019860201b60201c565b600a620000ce91906200057d565b612710620000dd9190620006ba565b6002819055506002546000803373ffffffffffffffffffffffffffffffffffffffff1673ffffffffffffffffffffffffffffffffffffffff16815260200190815260200160002081905550505060006200013c6200019860201b60201c565b60ff16600a6200014d91906200052c565b6127106200015c9190620006ba565b905062000179600482620001a160201b620009111790919060201c565b600581905550620001913382620001b960201b60201c565b50620007fc565b60006012905090565b60008183620001b19190620006ba565b905092915050565b600073ffffffffffffffffffffffffffffffffffffffff168273ffffffffffffffffffffffffffffffffffffffff1614156200022c576040517f08c379a0000000000000000000000000000000000000000000000000000000008152600401620002239062000424565b60405180910390fd5b62000240600083836200033260201b60201c565b806002600082825462000254919062000474565b92505081905550806000808473ffffffffffffffffffffffffffffffffffffffff1673ffffffffffffffffffffffffffffffffffffffff1681526020019081526020016000206000828254620002ab919062000474565b925050819055508173ffffffffffffffffffffffffffffffffffffffff16600073ffffffffffffffffffffffffffffffffffffffff167fddf252ad1be2c89b69c2b068fc378daa952ba7f163c4a11628f55a4df523b3ef8360405162000312919062000446565b60405180910390a36200032e600083836200033760201b60201c565b5050565b505050565b505050565b8280546200034a9062000732565b90600052602060002090601f0160209004810192826200036e5760008555620003ba565b82601f106200038957805160ff1916838001178555620003ba565b82800160010185558215620003ba579182015b82811115620003b95782518255916020019190600101906200039c565b5b509050620003c99190620003cd565b5090565b5b80821115620003e8576000816000905550600101620003ce565b5090565b6000620003fb601f8362000463565b91506200040882620007d3565b602082019050919050565b6200041e816200071b565b82525050565b600060208201905081810360008301526200043f81620003ec565b9050919050565b60006020820190506200045d600083018462000413565b92915050565b600082825260208201905092915050565b600062000481826200071b565b91506200048e836200071b565b9250827fffffffffffffffffffffffffffffffffffffffffffffffffffffffffffffffff03821115620004c657620004c562000768565b5b828201905092915050565b6000808291508390505b60018511156200052357808604811115620004fb57620004fa62000768565b5b60018516156200050b5780820291505b80810290506200051b85620007c6565b9450620004db565b94509492505050565b600062000539826200071b565b915062000546836200071b565b9250620005757fffffffffffffffffffffffffffffffffffffffffffffffffffffffffffffffff8484620005ce565b905092915050565b60006200058a826200071b565b9150620005978362000725565b9250620005c67fffffffffffffffffffffffffffffffffffffffffffffffffffffffffffffffff8484620005ce565b905092915050565b600082620005e05760019050620006b3565b81620005f05760009050620006b3565b816001811462000609576002811462000614576200064a565b6001915050620006b3565b60ff84111562000629576200062862000768565b5b8360020a91508482111562000643576200064262000768565b5b50620006b3565b5060208310610133831016604e8410600b8410161715620006845782820a9050838111156200067e576200067d62000768565b5b620006b3565b620006938484846001620004d1565b92509050818404811115620006ad57620006ac62000768565b5b81810290505b9392505050565b6000620006c7826200071b565b9150620006d4836200071b565b9250817fffffffffffffffffffffffffffffffffffffffffffffffffffffffffffffffff048311821515161562000710576200070f62000768565b5b828202905092915050565b6000819050919050565b600060ff82169050919050565b600060028204905060018216806200074b57607f821691505b6020821081141562000762576200076162000797565b5b50919050565b7f4e487b7100000000000000000000000000000000000000000000000000000000600052601160045260246000fd5b7f4e487b7100000000000000000000000000000000000000000000000000000000600052602260045260246000fd5b60008160011c9050919050565b7f45524332303a206d696e7420746f20746865207a65726f206164647265737300600082015250565b611976806200080c6000396000f3fe608060405234801561001057600080fd5b50600436106100cf5760003560e01c8063355274ea1161008c57806395d89b411161006657806395d89b4114610228578063a457c2d714610246578063a9059cbb14610276578063dd62ed3e146102a6576100cf565b8063355274ea146101aa57806339509351146101c857806370a08231146101f8576100cf565b806306fdde03146100d4578063095ea7b3146100f257806318160ddd14610122578063188b53721461014057806323b872dd1461015c578063313ce5671461018c575b600080fd5b6100dc6102d6565b6040516100e9919061124a565b60405180910390f35b61010c60048036038101906101079190610fe5565b610368565b604051610119919061122f565b60405180910390f35b61012a610386565b60405161013791906113ec565b60405180910390f35b61015a60048036038101906101559190610fe5565b610390565b005b61017660048036038101906101719190610f92565b6104ae565b604051610183919061122f565b60405180910390f35b6101946105a6565b6040516101a19190611407565b60405180910390f35b6101b26105af565b6040516101bf91906113ec565b60405180910390f35b6101e260048036038101906101dd9190610fe5565b6105b5565b6040516101ef919061122f565b60405180910390f35b610212600480360381019061020d9190610f25565b610661565b60405161021f91906113ec565b60405180910390f35b6102306106a9565b60405161023d919061124a565b60405180910390f35b610260600480360381019061025b9190610fe5565b61073b565b60405161026d919061122f565b60405180910390f35b610290600480360381019061028b9190610fe5565b610826565b60405161029d919061122f565b60405180910390f35b6102c060048036038101906102bb9190610f52565b61088a565b6040516102cd91906113ec565b60405180910390f35b6060600380546102e590611576565b80601f016020809104026020016040519081016040528092919081815260200182805461031190611576565b801561035e5780601f106103335761010080835404028352916020019161035e565b820191906000526020600020905b81548152906001019060200180831161034157829003601f168201915b5050505050905090565b600061037c610375610927565b848461092f565b6001905092915050565b6000600254905090565b600073ffffffffffffffffffffffffffffffffffffffff168273ffffffffffffffffffffffffffffffffffffffff161415610400576040517f08c379a00000000000000000000000000000000000000000000000000000000081526004016103f79061136c565b60405180910390fd5b60008111610443576040517f08c379a000000000000000000000000000000000000000000000000000000000815260040161043a906112cc565b60405180910390fd5b60055461046082610452610386565b610afa90919063ffffffff16565b106104a0576040517f08c379a00000000000000000000000000000000000000000000000000000000081526004016104979061128c565b60405180910390fd5b6104aa8282610b10565b5050565b60006104bb848484610c70565b6000600160008673ffffffffffffffffffffffffffffffffffffffff1673ffffffffffffffffffffffffffffffffffffffff1681526020019081526020016000206000610506610927565b73ffffffffffffffffffffffffffffffffffffffff1673ffffffffffffffffffffffffffffffffffffffff16815260200190815260200160002054905082811015610586576040517f08c379a000000000000000000000000000000000000000000000000000000000815260040161057d9061132c565b60405180910390fd5b61059a85610592610927565b85840361092f565b60019150509392505050565b60006012905090565b60055481565b60006106576105c2610927565b8484600160006105d0610927565b73ffffffffffffffffffffffffffffffffffffffff1673ffffffffffffffffffffffffffffffffffffffff16815260200190815260200160002060008873ffffffffffffffffffffffffffffffffffffffff1673ffffffffffffffffffffffffffffffffffffffff16815260200190815260200160002054610652919061143e565b61092f565b6001905092915050565b60008060008373ffffffffffffffffffffffffffffffffffffffff1673ffffffffffffffffffffffffffffffffffffffff168152602001908152602001600020549050919050565b6060600480546106b890611576565b80601f01602080910402602001604051908101604052809291908181526020018280546106e490611576565b80156107315780601f1061070657610100808354040283529160200191610731565b820191906000526020600020905b81548152906001019060200180831161071457829003601f168201915b5050505050905090565b6000806001600061074a610927565b73ffffffffffffffffffffffffffffffffffffffff1673ffffffffffffffffffffffffffffffffffffffff16815260200190815260200160002060008573ffffffffffffffffffffffffffffffffffffffff1673ffffffffffffffffffffffffffffffffffffffff16815260200190815260200160002054905082811015610807576040517f08c379a00000000000000000000000000000000000000000000000000000000081526004016107fe906113ac565b60405180910390fd5b61081b610812610927565b8585840361092f565b600191505092915050565b600062278d0042111561086e576040517f08c379a0000000000000000000000000000000000000000000000000000000008152600401610865906112ec565b60405180910390fd5b610880610879610927565b8484610c70565b6001905092915050565b6000600160008473ffffffffffffffffffffffffffffffffffffffff1673ffffffffffffffffffffffffffffffffffffffff16815260200190815260200160002060008373ffffffffffffffffffffffffffffffffffffffff1673ffffffffffffffffffffffffffffffffffffffff16815260200190815260200160002054905092915050565b6000818361091f9190611494565b905092915050565b600033905090565b600073ffffffffffffffffffffffffffffffffffffffff168373ffffffffffffffffffffffffffffffffffffffff16141561099f576040517f08c379a00000000000000000000000000000000000000000000000000000000081526004016109969061138c565b60405180910390fd5b600073ffffffffffffffffffffffffffffffffffffffff168273ffffffffffffffffffffffffffffffffffffffff161415610a0f576040517f08c379a0000000000000000000000000000000000000000000000000000000008152600401610a06906112ac565b60405180910390fd5b80600160008573ffffffffffffffffffffffffffffffffffffffff1673ffffffffffffffffffffffffffffffffffffffff16815260200190815260200160002060008473ffffffffffffffffffffffffffffffffffffffff1673ffffffffffffffffffffffffffffffffffffffff168152602001908152602001600020819055508173ffffffffffffffffffffffffffffffffffffffff168373ffffffffffffffffffffffffffffffffffffffff167f8c5be1e5ebec7d5bd14f71427d1e84f3dd0314c0f7b2291e5b200ac8c7c3b92583604051610aed91906113ec565b60405180910390a3505050565b60008183610b08919061143e565b905092915050565b600073ffffffffffffffffffffffffffffffffffffffff168273ffffffffffffffffffffffffffffffffffffffff161415610b80576040517f08c379a0000000000000000000000000000000000000000000000000000000008152600401610b77906113cc565b60405180910390fd5b610b8c60008383610ef1565b8060026000828254610b9e919061143e565b92505081905550806000808473ffffffffffffffffffffffffffffffffffffffff1673ffffffffffffffffffffffffffffffffffffffff1681526020019081526020016000206000828254610bf3919061143e565b925050819055508173ffffffffffffffffffffffffffffffffffffffff16600073ffffffffffffffffffffffffffffffffffffffff167fddf252ad1be2c89b69c2b068fc378daa952ba7f163c4a11628f55a4df523b3ef83604051610c5891906113ec565b60405180910390a3610c6c60008383610ef6565b5050565b600073ffffffffffffffffffffffffffffffffffffffff168373ffffffffffffffffffffffffffffffffffffffff161415610ce0576040517f08c379a0000000000000000000000000000000000000000000000000000000008152600401610cd79061134c565b60405180910390fd5b600073ffffffffffffffffffffffffffffffffffffffff168273ffffffffffffffffffffffffffffffffffffffff161415610d50576040517f08c379a0000000000000000000000000000000000000000000000000000000008152600401610d479061126c565b60405180910390fd5b610d5b838383610ef1565b60008060008573ffffffffffffffffffffffffffffffffffffffff1673ffffffffffffffffffffffffffffffffffffffff16815260200190815260200160002054905081811015610de1576040517f08c379a0000000000000000000000000000000000000000000000000000000008152600401610dd89061130c565b60405180910390fd5b8181036000808673ffffffffffffffffffffffffffffffffffffffff1673ffffffffffffffffffffffffffffffffffffffff16815260200190815260200160002081905550816000808573ffffffffffffffffffffffffffffffffffffffff1673ffffffffffffffffffffffffffffffffffffffff1681526020019081526020016000206000828254610e74919061143e565b925050819055508273ffffffffffffffffffffffffffffffffffffffff168473ffffffffffffffffffffffffffffffffffffffff167fddf252ad1be2c89b69c2b068fc378daa952ba7f163c4a11628f55a4df523b3ef84604051610ed891906113ec565b60405180910390a3610eeb848484610ef6565b50505050565b505050565b505050565b600081359050610f0a81611912565b92915050565b600081359050610f1f81611929565b92915050565b600060208284031215610f3b57610f3a611606565b5b6000610f4984828501610efb565b91505092915050565b60008060408385031215610f6957610f68611606565b5b6000610f7785828601610efb565b9250506020610f8885828601610efb565b9150509250929050565b600080600060608486031215610fab57610faa611606565b5b6000610fb986828701610efb565b9350506020610fca86828701610efb565b9250506040610fdb86828701610f10565b9150509250925092565b60008060408385031215610ffc57610ffb611606565b5b600061100a85828601610efb565b925050602061101b85828601610f10565b9150509250929050565b61102e81611500565b82525050565b600061103f82611422565b611049818561142d565b9350611059818560208601611543565b6110628161160b565b840191505092915050565b600061107a60238361142d565b91506110858261161c565b604082019050919050565b600061109d600f8361142d565b91506110a88261166b565b602082019050919050565b60006110c060228361142d565b91506110cb82611694565b604082019050919050565b60006110e3600e8361142d565b91506110ee826116e3565b602082019050919050565b600061110660108361142d565b91506111118261170c565b602082019050919050565b600061112960268361142d565b915061113482611735565b604082019050919050565b600061114c60288361142d565b915061115782611784565b604082019050919050565b600061116f60258361142d565b915061117a826117d3565b604082019050919050565b6000611192600f8361142d565b915061119d82611822565b602082019050919050565b60006111b560248361142d565b91506111c08261184b565b604082019050919050565b60006111d860258361142d565b91506111e38261189a565b604082019050919050565b60006111fb601f8361142d565b9150611206826118e9565b602082019050919050565b61121a8161152c565b82525050565b61122981611536565b82525050565b60006020820190506112446000830184611025565b92915050565b600060208201905081810360008301526112648184611034565b905092915050565b600060208201905081810360008301526112858161106d565b9050919050565b600060208201905081810360008301526112a581611090565b9050919050565b600060208201905081810360008301526112c5816110b3565b9050919050565b600060208201905081810360008301526112e5816110d6565b9050919050565b60006020820190508181036000830152611305816110f9565b9050919050565b600060208201905081810360008301526113258161111c565b9050919050565b600060208201905081810360008301526113458161113f565b9050919050565b6000602082019050818103600083015261136581611162565b9050919050565b6000602082019050818103600083015261138581611185565b9050919050565b600060208201905081810360008301526113a5816111a8565b9050919050565b600060208201905081810360008301526113c5816111cb565b9050919050565b600060208201905081810360008301526113e5816111ee565b9050919050565b60006020820190506114016000830184611211565b92915050565b600060208201905061141c6000830184611220565b92915050565b600081519050919050565b600082825260208201905092915050565b60006114498261152c565b91506114548361152c565b9250827fffffffffffffffffffffffffffffffffffffffffffffffffffffffffffffffff03821115611489576114886115a8565b5b828201905092915050565b600061149f8261152c565b91506114aa8361152c565b9250817fffffffffffffffffffffffffffffffffffffffffffffffffffffffffffffffff04831182151516156114e3576114e26115a8565b5b828202905092915050565b60006114f98261150c565b9050919050565b60008115159050919050565b600073ffffffffffffffffffffffffffffffffffffffff82169050919050565b6000819050919050565b600060ff82169050919050565b60005b83811015611561578082015181840152602081019050611546565b83811115611570576000848401525b50505050565b6000600282049050600182168061158e57607f821691505b602082108114156115a2576115a16115d7565b5b50919050565b7f4e487b7100000000000000000000000000000000000000000000000000000000600052601160045260246000fd5b7f4e487b7100000000000000000000000000000000000000000000000000000000600052602260045260246000fd5b600080fd5b6000601f19601f8301169050919050565b7f45524332303a207472616e7366657220746f20746865207a65726f206164647260008201527f6573730000000000000000000000000000000000000000000000000000000000602082015250565b7f4f7665724c696d697420546f6b656e0000000000000000000000000000000000600082015250565b7f45524332303a20617070726f766520746f20746865207a65726f20616464726560008201527f7373000000000000000000000000000000000000000000000000000000000000602082015250565b7f496e76616c696420616d6f756e74000000000000000000000000000000000000600082015250565b7f596f75206861766520746f207761697400000000000000000000000000000000600082015250565b7f45524332303a207472616e7366657220616d6f756e742065786365656473206260008201527f616c616e63650000000000000000000000000000000000000000000000000000602082015250565b7f45524332303a207472616e7366657220616d6f756e742065786365656473206160008201527f6c6c6f77616e6365000000000000000000000000000000000000000000000000602082015250565b7f45524332303a207472616e736665722066726f6d20746865207a65726f20616460008201527f6472657373000000000000000000000000000000000000000000000000000000602082015250565b7f496e76616c696420416464726573730000000000000000000000000000000000600082015250565b7f45524332303a20617070726f76652066726f6d20746865207a65726f2061646460008201527f7265737300000000000000000000000000000000000000000000000000000000602082015250565b7f45524332303a2064656372656173656420616c6c6f77616e63652062656c6f7760008201527f207a65726f000000000000000000000000000000000000000000000000000000602082015250565b7f45524332303a206d696e7420746f20746865207a65726f206164647265737300600082015250565b61191b816114ee565b811461192657600080fd5b50565b6119328161152c565b811461193d57600080fd5b5056fea2646970667358221220ddddd75c40578252b6a149d710ec4faf260e578a27d71fdade9db68c8c48120e64736f6c63430008070033",
  "immutableReferences": {},
  "source": "// SPDX-License-Identifier: MIT\r\n\r\npragma solidity 0.8.7;\r\n\r\n\r\ninterface IERC20 {\r\n     \r\n    \r\n    function totalSupply() external view returns (uint256);\r\n\r\n   \r\n    function balanceOf(address account) external view returns (uint256);\r\n\r\n   \r\n    function transfer(address recipient, uint256 amount) external returns (bool);\r\n\r\n    \r\n    function allowance(address owner, address spender) external view returns (uint256);\r\n\r\n   \r\n    function approve(address spender, uint256 amount) external returns (bool);\r\n    \r\n    \r\n    function transferFrom(\r\n        address sender,\r\n        address recipient,\r\n        uint256 amount\r\n        //using SafeMath for uint;\r\n    ) external returns (bool);\r\n\r\n   \r\n    event Transfer(address indexed from, address indexed to, uint256 value);\r\n\r\n   \r\n    event Approval(address indexed owner, address indexed spender, uint256 value);\r\n}\r\ninterface IERC20Metadata is IERC20 {\r\n   \r\n    function name() external view returns (string memory);\r\n\r\n    \r\n    function symbol() external view returns (string memory);\r\n\r\n    function decimals() external view returns (uint8);\r\n}\r\nabstract contract Context {\r\n    function _msgSender() internal view virtual returns (address) {\r\n        return msg.sender;\r\n    }\r\n\r\n    function _msgData() internal view virtual returns (bytes calldata) {\r\n        return msg.data;\r\n    }\r\n}\r\n\r\n\r\ncontract ERC20 is Context, IERC20, IERC20Metadata {\r\n    mapping(address => uint256) private _balances;\r\n\r\n    mapping(address => mapping(address => uint256)) private _allowances;\r\n    \r\n    //mapping(address => uint256) private _buyToken;\r\n\r\n    uint256 private _totalSupply;\r\n\r\n    string private _name;\r\n    string private _symbol;\r\n   \r\n    \r\n\r\n    constructor(string memory name_, string memory symbol_) {\r\n        _name = name_;\r\n        _symbol = symbol_;\r\n        _totalSupply = 10000*10**(decimals());\r\n        _balances[msg.sender] = _totalSupply;\r\n    }\r\n\r\n    \r\n    function name() public view virtual override returns (string memory) {\r\n        return _name;\r\n    }\r\n\r\n    \r\n    function symbol() public view virtual override returns (string memory) {\r\n        return _symbol;\r\n    }\r\n\r\n    \r\n    function decimals() public view virtual override returns (uint8) {\r\n        return 18;\r\n    }\r\n\r\n   \r\n    function totalSupply() public view virtual override returns (uint256) {\r\n        return _totalSupply;\r\n    }\r\n\r\n    \r\n    function balanceOf(address account) public view virtual override returns (uint256) {\r\n        return _balances[account];\r\n    }\r\n    \r\n\r\n    function transfer(address recipient, uint256 amount) public virtual override returns (bool) {\r\n        require(block.timestamp <= (30 days), \"You have to wait\");\r\n        _transfer(_msgSender(), recipient, amount);\r\n        return true;\r\n    }\r\n    \r\n    function allowance(address owner, address spender) public view virtual override returns (uint256) {\r\n        return _allowances[owner][spender];\r\n    }\r\n\r\n    \r\n    function approve(address spender, uint256 amount) public virtual override returns (bool) {\r\n        _approve(_msgSender(), spender, amount);\r\n        return true;\r\n    }\r\n\r\n    function transferFrom(\r\n        address sender,\r\n        address recipient,\r\n        uint256 amount\r\n    ) public virtual override returns (bool) {\r\n        _transfer(sender, recipient, amount);\r\n\r\n        uint256 currentAllowance = _allowances[sender][_msgSender()];\r\n        require(currentAllowance >= amount, \"ERC20: transfer amount exceeds allowance\");\r\n        unchecked {\r\n            _approve(sender, _msgSender(), currentAllowance - amount);\r\n        }\r\n\r\n        return true;\r\n    }\r\n\r\n   \r\n    function increaseAllowance(address spender, uint256 addedValue) public virtual returns (bool) {\r\n        _approve(_msgSender(), spender, _allowances[_msgSender()][spender] + addedValue);\r\n        return true;\r\n    }\r\n\r\n    \r\n    function decreaseAllowance(address spender, uint256 subtractedValue) public virtual returns (bool) {\r\n        uint256 currentAllowance = _allowances[_msgSender()][spender];\r\n        require(currentAllowance >= subtractedValue, \"ERC20: decreased allowance below zero\");\r\n        unchecked {\r\n            _approve(_msgSender(), spender, currentAllowance - subtractedValue);\r\n        }\r\n\r\n        return true;\r\n    }\r\n\r\n    \r\n    function _transfer(\r\n        address sender,\r\n        address recipient,\r\n        uint256 amount\r\n    ) internal virtual {\r\n        require(sender != address(0), \"ERC20: transfer from the zero address\");\r\n        require(recipient != address(0), \"ERC20: transfer to the zero address\");\r\n\r\n        _beforeTokenTransfer(sender, recipient, amount);\r\n\r\n        uint256 senderBalance = _balances[sender];\r\n        require(senderBalance >= amount, \"ERC20: transfer amount exceeds balance\");\r\n        unchecked {\r\n            _balances[sender] = senderBalance - amount;\r\n        }\r\n        _balances[recipient] += amount;\r\n\r\n        emit Transfer(sender, recipient, amount);\r\n\r\n        _afterTokenTransfer(sender, recipient, amount);\r\n    }\r\n\r\n    \r\n    function _mint(address account, uint256 amount) internal virtual {\r\n        require(account != address(0), \"ERC20: mint to the zero address\");\r\n\r\n        _beforeTokenTransfer(address(0), account, amount);\r\n\r\n        _totalSupply += amount;\r\n        _balances[account] += amount;\r\n        emit Transfer(address(0), account, amount);\r\n\r\n        _afterTokenTransfer(address(0), account, amount);\r\n    }\r\n\r\n   \r\n    function _burn(address account, uint256 amount) internal virtual {\r\n        require(account != address(0), \"ERC20: burn from the zero address\");\r\n\r\n        _beforeTokenTransfer(account, address(0), amount);\r\n\r\n        uint256 accountBalance = _balances[account];\r\n        require(accountBalance >= amount, \"ERC20: burn amount exceeds balance\");\r\n        unchecked {\r\n            _balances[account] = accountBalance - amount;\r\n        }\r\n        _totalSupply -= amount;\r\n\r\n        emit Transfer(account, address(0), amount);\r\n\r\n        _afterTokenTransfer(account, address(0), amount);\r\n    }\r\n\r\n    \r\n    function _approve(\r\n        address owner,\r\n        address spender,\r\n        uint256 amount\r\n    ) internal virtual {\r\n        require(owner != address(0), \"ERC20: approve from the zero address\");\r\n        require(spender != address(0), \"ERC20: approve to the zero address\");\r\n\r\n        _allowances[owner][spender] = amount;\r\n        emit Approval(owner, spender, amount);\r\n    }\r\n\r\n   \r\n    function _beforeTokenTransfer(\r\n        address from,\r\n        address to,\r\n        uint256 amount\r\n    ) internal virtual {}\r\n\r\n    \r\n    function _afterTokenTransfer(\r\n        address from,\r\n        address to,\r\n        uint256 amount\r\n    ) internal virtual {}\r\n}\r\n\r\nlibrary SafeMath {\r\n    \r\n    function tryAdd(uint256 a, uint256 b) internal pure returns (bool, uint256) {\r\n        unchecked {\r\n            uint256 c = a + b;\r\n            if (c < a) return (false, 0);\r\n            return (true, c);\r\n        }\r\n    }\r\n\r\n    \r\n    function trySub(uint256 a, uint256 b) internal pure returns (bool, uint256) {\r\n        unchecked {\r\n            if (b > a) return (false, 0);\r\n            return (true, a - b);\r\n        }\r\n    }\r\n\r\n   \r\n    function tryMul(uint256 a, uint256 b) internal pure returns (bool, uint256) {\r\n        unchecked {\r\n            \r\n            if (a == 0) return (true, 0);\r\n            uint256 c = a * b;\r\n            if (c / a != b) return (false, 0);\r\n            return (true, c);\r\n        }\r\n    }\r\n\r\n    \r\n    function tryDiv(uint256 a, uint256 b) internal pure returns (bool, uint256) {\r\n        unchecked {\r\n            if (b == 0) return (false, 0);\r\n            return (true, a / b);\r\n        }\r\n    }\r\n\r\n    function tryMod(uint256 a, uint256 b) internal pure returns (bool, uint256) {\r\n        unchecked {\r\n            if (b == 0) return (false, 0);\r\n            return (true, a % b);\r\n        }\r\n    }\r\n\r\n    function add(uint256 a, uint256 b) internal pure returns (uint256) {\r\n        return a + b;\r\n    }\r\n\r\n    function sub(uint256 a, uint256 b) internal pure returns (uint256) {\r\n        return a - b;\r\n    }\r\n\r\n    function mul(uint256 a, uint256 b) internal pure returns (uint256) {\r\n        return a * b;\r\n    }\r\n\r\n    function div(uint256 a, uint256 b) internal pure returns (uint256) {\r\n        return a / b;\r\n    }\r\n\r\n    function mod(uint256 a, uint256 b) internal pure returns (uint256) {\r\n        return a % b;\r\n    }\r\n\r\n    function sub(\r\n        uint256 a,\r\n        uint256 b,\r\n        string memory errorMessage\r\n    ) internal pure returns (uint256) {\r\n        unchecked {\r\n            require(b <= a, errorMessage);\r\n            return a - b;\r\n        }\r\n    }\r\n\r\n    function div(\r\n        uint256 a,\r\n        uint256 b,\r\n        string memory errorMessage\r\n    ) internal pure returns (uint256) {\r\n        unchecked {\r\n            require(b > 0, errorMessage);\r\n            return a / b;\r\n        }\r\n    }\r\n\r\n    function mod(\r\n        uint256 a,\r\n        uint256 b,\r\n        string memory errorMessage\r\n    ) internal pure returns (uint256) {\r\n        unchecked {\r\n            require(b > 0, errorMessage);\r\n            return a % b;\r\n        }\r\n    }\r\n}\r\n\r\ncontract Assignment3B is ERC20 {\r\n    using SafeMath for uint;\r\n    uint public cap;\r\n    \r\n\r\n     \r\n    constructor() ERC20(\"ThirdToken\",\"MKN\")public{\r\n        //owner = msg.sender;\r\n        //releaseTime_ = (time.duration.months(1))\r\n        uint initialSupply  = 10000 * (10** uint(decimals()));\r\n        cap = initialSupply.mul(4);\r\n        _mint(msg.sender,initialSupply);\r\n    }\r\n    function generateToken(address account, uint amount) public {\r\n        require (account != address(0), \"Invalid Address\");\r\n        require (amount > 0, \"Invalid amount\");\r\n        require (totalSupply().add(amount)<cap, \"OverLimit Token\");\r\n        _mint(account,amount);\r\n    }   \r\n}",
  "sourcePath": "D:\\Assignme5nt3Bagain\\contracts\\Assignment3.sol",
  "compiler": {
    "name": "solc",
    "version": "0.8.7+commit.e28d00a7.Emscripten.clang"
  },
  "schemaVersion": "3.4.3",
  "updatedAt": "2021-08-24T12:44:48.474Z",
  "devdoc": {
    "kind": "dev",
    "methods": {},
    "version": 1
  },
  "userdoc": {
    "kind": "user",
    "methods": {},
    "version": 1
  }
}